:020000040000FA
:0400000080310D2816
:1000060008007E1480318B31512380318B31F323EC
:100016007E10090080310F28993084008A308500CF
:10002600CB308600003087000C308A31492280317F
:100036005E3084000030850009308A3143228031E9
:10004600D7308400003085000A308A3143227E1082
:10005600200087317D2F8A31E72280312000DD01A3
:1000660000308B31C92380315E302000D3008930C7
:10007600D4008D31CD2580318A31C42280310F39AB
:10008600E83E840087300318013E850000088B3166
:10009600782380312000AB01AB0AAC0101308B31F3
:1000A600302380312100A601261874282608A400D2
:1000B60024082000DD0001308B31C9238031013A4C
:1000C600031D77288A31B32280310F39E83E840038
:1000D60087300318013E850000088B317823803174
:1000E60077288A318D2280310B302100A5002630F9
:1000F600A4005D30890B7D28A40B7D28A50B7D28E7
:10010600003201302100A4002408A6071030260280
:10011600031C5728A6012618AC2826080F3CA40065
:1001260024082000DD0001308B31C9238031013ADB
:10013600031DAF288A31B32280310F39E83E84008F
:1001460087300318013E850000088B317823803103
:10015600AF288A31822280310B302100A50026305B
:10016600A4005D30890BB528A40BB528A50BB528CE
:10017600003201302100A4002408A6071030260210
:10018600031C8E288A31E72280312000DD010130F0
:100196008B31C92380315E302000D3008930D400F2
:1001A6008D31CD2580318A31C42280310F39E83E28
:1001B600840087300318013E850000088B317823C0
:1001C60080312000AB01AB0AAC01AC0A01308B31A7
:1001D600302380312100A601261809292608A4000B
:1001E60024082000DD0000308B31C92380318A319C
:1001F600B32280310F39E83E840087300318013E70
:10020600850000088B31782380310C298A318D22B4
:1002160080310B302100A5002630A4005D30890B0B
:100226001229A40B1229A50B122900320130210034
:10023600A4002408A60710302602031CEF28A601F6
:1002460026183E2926080F3CA40024082000DD00BD
:1002560000308B31C92380318A31B32280310F3986
:10026600E83E840087300318013E850000088B3184
:100276007823803141298A31822280310B30210056
:10028600A5002630A4005D30890B4729A40B472919
:10029600A50B4729003201302100A4002408A60737
:1002A60010302602031C23298A31E72280312000E0
:1002B600DD0100308B31C92380317D302000D30031
:1002C6008930D4008D31CD2580312000AB01AB0AB9
:1002D600AC0101308B313023803126302100A4005F
:1002E60024082000DD0001308B31C92380318A319A
:1002F6008D228031013A031D8E290C302100A40085
:1003060024082000DD0000308B31C92380314130C4
:100316008B317823803115302100A5004B30A400A5
:10032600BE30890B9429A40B9429A50B94290000AF
:1003360027302100A40024082000DD0001308B3185
:10034600C92380318A318D228031003A031DB929B3
:100356000D302100A40024082000DD0000308B3180
:10036600C923803142308B3178238031153021000A
:10037600A5004B30A400BE30890BBF29A40BBF29B2
:10038600A50BBF2900002000DD01DD0A00308B31FE
:10039600C92380318A3182228031013A031DE12945
:1003A6000E302100A40024082000DD0000308B312F
:1003B600C923803143308B317823803115302100B9
:1003C600A5004B30A400BE30890BE729A40BE72912
:1003D600A50BE72900002000DD0100308B31C92381
:1003E60080318A3182228031003A031D082A0F307B
:1003F6002100A40024082000DD0000308B31C92331
:10040600803144308B317823803115302100A500AE
:100416004B30A400BE30890B0E2AA40B0E2AA50B66
:100426000E2A000027302100A40024082000DD0049
:1004360001308B31C9238031013A031D2C2A20005B
:10044600DD0101308B31C923803145308B31782372
:10045600803115302100A5004B30A400BE30890B39
:10046600322AA40B322AA50B322A0000283021009A
:10047600A40024082000DD0001308B31C92380311F
:10048600003A031D512A2000DD01DD0A01308B31BF
:10049600C923803146308B317823803115302100D5
:1004A600A5004B30A400BE30890B572AA40B572A4F
:1004B600A50B572A00000800CB30860000308700C5
:1004C600A73084000030850008302100A400160003
:1004D6001A00A40B6A2AA730A40024082000DD0015
:1004E60000308F314127823104302100A4002408D6
:1004F600A7000A30A4002408A8001130A40024088C
:10050600A9000A30A4002408AA000430A400240884
:10051600AB000A30A4002408AC001130A400240863
:10052600AD000E30A4002408AE00A730A4002408B5
:100536002000DD0001308F3141278231113021004A
:10054600A4002408A7001530A4002408A80015302C
:10055600A4002408A9000430A4002408AA000A3034
:10056600A4002408AB000A30A4002408AC000A301A
:10057600A4002408AD000430A4002408AE00A7306F
:10058600A40024082000DD0002308F31412782318B
:100596001F302100A4002408A700A8010E30A400E3
:1005A6002408A900AA011F30A4002408AB00AC014E
:1005B6001530A4002408AD001530A4002408AE00B0
:1005C600A730A40024082000DD0003308F31412726
:1005D60082311F302100A4002408A7001130A40096
:1005E6002408A8001530A4002408A9001130A4008E
:1005F6002408AA001F30A4002408AB001530A4006C
:100606002408AC001530A4002408AD001530A40061
:100616002408AE00A730A40024082000DD00043022
:100626008F314127823115302100A4002408A7000C
:100636001530A4002408A8000E30A4002408A90040
:100646001530A4002408AA000A30A4002408AB0030
:100656001530A4002408AC000A30A4002408AD001C
:100666001530A4002408AE00A730A40024082000FA
:10067600DD0005308F31412782311F302100A40073
:100686002408A7001130A4002408A8001530A400EF
:100696002408A9001D30A4002408AA00AB01AB0A57
:1006A6001F30A4002408AC00AD011F30A4002408AC
:1006B600AE00A730A40024082000DD0006308F31EC
:1006C600412782311F302100A4002408A7001130E1
:1006D600A4002408A8001030A4002408A9001F3094
:1006E600A4002408AA00AB01AB0A1530A400240814
:1006F600AC001130A4002408AD001F30A40024086B
:10070600AE00A730A40024082000DD0007308F319A
:10071600412782318A31E72282312000DD01003013
:100726008B31C92382315F302000D3008830D4005A
:100736008D31CD2582312000AB01AB0AAC010130F1
:100746008B31302382312000DD0101308B31C9230A
:1007560082312100A60126088B31782382310B30A5
:100766002100A5002630A4005D30890BB82BA40B10
:10077600B82BA50BB82B003201302100A4002408A9
:10078600A60710302602031CAE2B8A31E7228231DF
:100796002000DD0101308B31C92382315F3020001A
:1007A600D3008830D4008D31CD2582312000AB01B5
:1007B600AB0AAC0101308B31302382312000DD01E0
:1007C60000308B31C92382312100A60126088B31E6
:1007D600782382310B302100A5002630A4005D303D
:1007E600890BF32BA40BF32BA50BF32B0032013053
:1007F6002100A4002408A6071030260203180800CA
:10080600E92B8A31E72284312000DD0100308B316B
:10081600C9238431FF302000CC000030CD00853163
:10082600BF25843120004308CF004208CE008D3119
:100836004125843120004C082100A4002408A7008B
:100846006E302000D3008930D4008D31CD2584311F
:1008560021002708A4000430A436890B2F2C240875
:100866000F39E83E840087300318013E85000008F2
:100876008B3178238431210027080F39E83E840024
:1008860087300318013E850000088B3178238431B8
:100896002000DD0101308B31C92384312100A601FE
:1008A60027088B3178238431FF302000CC000030BC
:1008B600CD0021002708013E2000CE00003003189D
:1008C6000130CF008D314125843120004C082100B4
:1008D600A4002408A7000B302100A5002630A400A0
:1008E6005D30890B742CA40B742CA50B742C003270
:1008F60001302100A4002408A60710302602031C9C
:10090600532C8A31E72284312000DD0101308B31FE
:10091600C92384316E302000D3008930D4008D3154
:10092600CD25843121002708A4000430A436890B84
:10093600992C24080F39E83E840087300318013EBD
:10094600850000088B3178238431210027080F3970
:10095600E83E840087300318013E850000088B318D
:10096600782384312000DD0100308B31C9238431A6
:100976002100A6012000D301D30AA7308E315C26C0
:100986008431FF302000CC000030CD002100270844
:10099600013E2000CE00003003180130CF008D311B
:1009A6004125843120004C082100A4002408A7001A
:1009B6000B302100A5002630A4005D30890BE12C08
:1009C600A40BE12CA50BE12C003201302100A40080
:1009D6002408A6071030260203180800BD2C2000A4
:1009E6000C08F8007808A0000D08F8007808A100A7
:1009F600A60126356307F8007808093E86008701B8
:100A0600403FA200413FA300222D200822048C0073
:100A16008C31FC248431F80078082000A4002008DA
:100A26008C003A2D210822048D008C31FC2484315F
:100A3600F80078082000A40021088D003A2D003027
:100A46002205F800FF302305F9007908003A03195A
:100A5600302D013A0319352D3A2D7808003A03193D
:100A6600082D3A2D7808003A0319152D3A2D240A37
:100A7600031D452D0130F8007808A607043026022C
:100A8600031CFC2C240A031D6A2DFF30F8006308A2
:100A9600113E86008701780881006308123E8600B1
:100AA60087010030C03FC13F682D2508F800630864
:100AB600113E86008701780881006308123E860091
:100AC60087010130C03F0030C13FFF3008002608D3
:100AD600F8000130F835FF3E031D6D2D78352407EB
:100AE600F9007908A5006308113E86008701010810
:100AF6002506031D582D6308123E86008701013026
:100B0600810741310318810A6308123E8600870176
:100B16001600063AF8001600F8040319A82D630813
:100B2600123E860087011600803AF8001600F80487
:100B36000319A82D6308123E860087011600F800E7
:100B46001600013AF804031DAA2D250808006308BB
:100B5600123E8600870116000C3AF8001600013A8C
:100B6600F804031D682D6308123E860087010030D5
:100B7600C03F0130C13FA82D01302000C400003025
:100B8600C5000030C6000030C7000030C800003085
:100B9600C9000030CA000030CB00210059082000EF
:100BA600A90021005A082000AA0021005B082000A5
:100BB600AB0021005C082000AC0021005D0820008D
:100BC600AD0021005E082000AE0021005F08200075
:100BD600AF00210060082000B0005830B800513046
:100BE600B700F430B6002D30B5004C30B400953067
:100BF600B3007F30B2002D30B1008E31142685311E
:100C060020002930860000308700403FC407413F5E
:100C1600C53D423FC63D433FC73D443FC83D453FB6
:100C2600C93D463FCA3D473FCB3D4B082100E0004A
:100C360020004A082100DF00200049082100DE00CC
:100C4600200048082100DD00200047082100DC00C4
:100C5600200046082100DB00200045082100DA00BC
:100C6600200044082100D900D930860000308700D2
:100C7600403F2000C400413FC500423FC600433FFD
:100C8600C700443FC800453FC900463FCA00473F2A
:100C9600CB0007302000CB36CA0CC90CC80CC70CD9
:100CA600C60CC50CC40C890B4D2E20004508C3008C
:100CB6004408C20008002000B1003108AD002D082C
:100CC600B2002B082C04031908002908AD003208CD
:100CD600860087012D0881002908AD002B08320700
:100CE600AE002E08FF3E860087012D0881000030E9
:100CF6002C02033003192B02031C08002908AD003F
:100D0600320A860087012D0881002908AD003208C5
:100D1600023E860087012D0881002908AD002B08B8
:100D26003207AE002E08FE3E860087012D088100A0
:100D36002908AD002B083207AE002E08FD3E8600BE
:100D460087012D08810000302C02073003192B0281
:100D5600031C08002908AD003208033E86008701FF
:100D66002D0881002908AD002B083207AE002E0899
:100D7600FC3E860087012D08810000302C020930D8
:100D860003192B02031C08003209AD003309AE001B
:100D9600AD0A0319AE0A03302D05AF0000302E054B
:100DA600B0002F08AD002D08B2072F08AB0230089F
:100DB600AC3BFC30AB05FF30AC052B082C0403190B
:100DC60008002908AD003208860087012D08810039
:100DD6000130AB020030AC3B0130AD002D08B2074C
:100DE600E02E8A31E72286318E31A5268631200013
:100DF600AB01AB0AAC0101308B31302386312000C8
:100E0600DD0100308B31C92386312B302000D30021
:100E16008930D4008D31CD2586312100A6010C30D4
:100E2600A40024082000DD0000308B31C923863160
:100E3600210026080F39E83E840087300318013E5A
:100E4600850000088B31782386312100A7010E30FA
:100E5600A40024082000DD0000308B31C923863130
:100E660021002708A4000430A436890B372F240854
:100E76000F39E83E840087300318013E85000008DC
:100E86008B3178238631210027080F39E83E84000C
:100E960087300318013E850000088B3178238631A0
:100EA60021002708A40024082000DD0021002608D0
:100EB6008C318524863102302100A5000430A4003F
:100EC600BA30890B642FA40B642FA50B642F000086
:100ED60001302100A4002408A70720302702031CA4
:100EE6002A2F0130A4002408A60710302602031872
:100EF6000800122F7A302100990023008C018D0101
:100F06001C3021008C00B6308D0020008C018D0134
:100F1600063021009500200095010B118B16A901C2
:100F26001F30AA000C30AB0008308B319F2387316D
:100F360013302100AF002F082000A90000308A31AD
:100F4600FC22873104302100B1000030B2000830A5
:100F5600B3000030B4001030B5000030B600803069
:100F6600B7000130B8000230B9000030BA000130D5
:100F7600BB000030BC008030BD000030BE004030F9
:100F8600BF000030C000B0308C31512487310B17C0
:100F96008B1720000D148D11D0302100AF00C93001
:100FA600890BD32FAF0BD32F00328F319527873183
:100FB60084310424873180312E20873182315F22AB
:100FC60087318631F4268731DB2F303431343234A1
:100FD60033343434353436343734383439344134B0
:100FE6004234433444344534463400344E346F344A
:100FF6006E3465342034203420343A34203420349E
:101006002034203420342034203420340034313449
:10101600323433344134343435343634423437346C
:101026003834393443342A343034233444340034A5
:101036004E346F346E3465343A3445347234723417
:101046006F34723420342034203420342034203459
:10105600003454346534733474343A344934323495
:101066004334203430343134203420342034203496
:101076002034003454346534733474343A34493487
:101086003234433420343034323420342034203463
:1010960020342034003454346534733474343A3490
:1010A6004934323443342034303433342034203419
:1010B600203420342034003454346534733474348A
:1010C6003A344C34433444342034303433342034CA
:1010D60020342034203420340034543465347334BE
:1010E60074343A344934323443342034303434346A
:1010F60020342034203420342034003452347834E0
:10110600203430347834303430342D343E34303476
:101116007834463446342034203420340034543471
:101126007834203430347834303430342D343E340E
:101136003034783446344634203420342034003475
:1011460054346534733474343A344B3465347934F6
:1011560070346134643420343034313420342034F3
:10116600003454346534733474343A344B3465344F
:101176007934703461346434203430343234203479
:101186002034003454346534733474343A344B3474
:101196006534793470346134643420343034333413
:1011A60020342034003454346534733474343A347F
:1011B6004B346534793470346134643420343034DB
:1011C60034342034203400345434783420343034E9
:1011D6007834203420342D343E345234783420345C
:1011E60030347834203420340034463469346E3454
:1011F60061346C34203420343A3449346E347034DB
:101206007534743420343134203400344234753427
:10121600663466346534723420343A3449346E3474
:10122600703475347434203431342034003443340B
:1012360075347234723465346E3474343A344934E5
:101246006E347034753474342034313420340034C0
:1012560054346534733474343A344C34433444343B
:10126600203430343434203430343A34303430346A
:1012760000345434783420343034783430343034D4
:101286002D343E34303478344634463420344E34AB
:10129600473400345434783420343034783430349D
:1012A60030342D343E3430347834463446342034A9
:1012B6004F344B34003454346534733474343A3414
:1012C6004C344334443420343034323420343034D3
:1012D60078343034003454346534733474343A34E6
:1012E6004C344334443420343034313420343034B4
:1012F6007834003454346534733474343A344C34AA
:1013060043344434203430343234203400345834B6
:041316005834003413
:10148600640080010131890B442A0034FE001200F9
:101496001E00FE0B4A2A00348B130130F000700840
:1014A6002000E20708008A3165222100D7012400C6
:1014B6001E15080001302000E2026208031D080024
:1014C6008B17080024001C19652A1E081F390319EA
:1014D6000800652A2000A9002908240099008A31FD
:1014E600652224001E0808002000AA0080308A31E8
:1014F6006D228A3120002A088A316D2208002000D8
:101506005E08031D882A003008005E08FF3E8D3104
:10151600872508004F3020005E02031C942A003005
:1015260008005E08013E8D318725080011340A3413
:1015360004341534153404340A34113403340034B5
:10154600033400342000AA0000308A316D228A312B
:1015560020002A088A316D228A318A3156220800F3
:1015660028302000CC000030CD005E08D300D40126
:101576005308CE005408CF008D31412520004C0879
:10158600080028302000A9000030AA005E08B2003A
:10159600B3013208AB003308AC008E31EF262000D1
:1015A600290808002000AC00AB012C1CDE2A290803
:1015B600AA002A08AB070310A90D0310AC0C2C08CF
:1015C600031DD82A2B0808002000A9013E308B31C4
:1015D60013238A3101308A31A5228A312000DE01A7
:1015E60006302000AB009B30890BF72AAB0BF72A9D
:1015F60008002000AA002100D70120002A08031DA8
:10160600082B803024009C000A2B24009C0120001B
:10161600290824009A0028309D0080309E0008008A
:101626002000AA008A3165228B3121005703031D51
:101636001F2B24009E14232BD701D70A24001E1427
:101646008A3165228B312000290C2A0D240099004D
:101656008A31652224001E0808002000AF00A90177
:101666003E308B3113238B3120002B08AD00013027
:10167600AD35890B3B2B2F08AE000130AE35FF3E52
:10168600031D412B2E352D042C0408388A31A52242
:101696008B312230890B4D2B003208000B1D0800C0
:1016A600200095010B11612B8431F2242000A70044
:1016B6002708E40008008C31BE2408006508A7004E
:1016C600A8012808003A0319692B772B2708003A46
:1016D6000319772B013A0319572B033A03195E2B8B
:1016E600013A03195E2B772B08002000D400A901CC
:1016F6003E308B3113238B3140308A316D228B3152
:10170600200054088A316D228B318A3156228B3162
:1017160050302000CC000030CD005E08013ECE00E7
:10172600003003180130CF008D31412520004C08D0
:10173600D3005308DE0008002000AC002A082B0462
:101746000319AC2B2B082100D60020002A08210003
:10175600D50020002908031DB42B803024009400F6
:10176600B62B240094013630950081309600053062
:10177600970020002C3524009200FE3093002000B4
:101786009111921121009115921508002100A200D5
:10179600023022020318D42B283020005D02031CDD
:1017A600D62B0030080028302100A0002008200099
:1017B600A900210022088A31D5228B3120005D073D
:1017C6002100A1002108A30020005E0821002306B5
:1017D600031DEF2B0130080023088D3187250800F3
:1017E6002000911D0D2C24009612F001F00A4030C5
:1017F6001605F500140825397504F6007608F1007B
:10180600210056088A0055080A008C3120009111E3
:10181600240015162000921D0800F001F00AFF3082
:10182600F5007508F100210056088A0055080A00DF
:101836008C31200092110800372C24001108080072
:1018460024001108F20072082000E60008002400B7
:10185600110820006608240091000130F200720889
:101866002000E60708002C2C7108F200F30173082B
:10187600003A03193F2C502C7208013A0319202C08
:10188600043A03192A2C243A0319232C053A03197E
:10189600362C403A0319502C502C08002000B40076
:1018A6003408031908003408113E860087018101B7
:1018B6003408123E860087010030C03FC13F34081D
:1018C600183E8600870181013408193E860087018B
:1018D60081010330B30034081A3E860087013308BD
:1018E60081000030A900AA000430AB000030AC0033
:1018F6003408143E86315E2620003408B3003308CF
:10190600E30008002100A0002000A9013E308B3131
:1019160013238C3139308A3177228C312230890B6E
:10192600922C0032210020080F3940388A31772264
:101936008C312230890B9D2C003238308A31772247
:101946008C312230890BA52C003240308A316D2231
:101956008C3120005D081F398A316D228C318A3125
:1019660056228C312230890BB62C003220005E08BC
:101976008D318725080020006308183E8600870100
:1019860004300102031808008431F2248C31FA0075
:101996007A08FC007C0A031908008A314F228C3130
:1019A600200063081A3E860087010108013E0339BC
:1019B600FA007A08FD007C08FA007D086307FB0040
:1019C6007B08143E860087017A0881007D08FA00AC
:1019D60063081A3E860087017A0881000130FA0002
:1019E6006308183E860087017A0881078A315D22DE
:1019F600080020000C08F0007008F2000D08F00046
:101A06007008F300F70177356307F000700A860067
:101A16008701403FF500413FF6001A2D7208142D4C
:101A26007308F0007008F400322DFF300800003013
:101A36007505F000FF307605F1007108003A0319CC
:101A4600282D013A03192D2D182D7008003A031977
:101A5600112D182D7008003A0319132D182D74082E
:101A660075050319382D770808000130F000700855
:101A7600F707043077020318182D062D2000D2012F
:101A8600CF1F4C2DCE09CF09CE0A0319CF0AD2019A
:101A9600D20ACD1F532DCC09CD09CC0A0319CD0A84
:101AA6004C084D0403197A2DD101D10ACD1B652DA1
:101AB6000130CC35CD0D890B5C2D0130D00050089E
:101AC600D107592D4D084F02031D6B2D4C084E02B0
:101AD600031C712D4C08CE024D08CF3B0130CD368C
:101AE600CC0C890B722D0130D102031D652D5208D5
:101AF6000319822DCE09CF09CE0A0319CF0A4F0842
:101B0600CD004E08CC0008002000DC005C08D300A5
:101B16005308DE002830CC000030CD005C08D3002E
:101B2600D4015308CE005408CF008D3141258D31A4
:101B360020004C08D5004D08D6002830A9000030FA
:101B4600AA005C08D700D8015708AB005808AC00BB
:101B56008E31EF268D3120002908D9000530D93580
:101B6600FF3E031DB22D59355507DA005A08DB0032
:101B7600A9013E308B3113238D3120005B087F395C
:101B860080388A31A5228D312230890BC82D00324A
:101B9600013008002000A9013E308B3113238D311E
:101BA60040308A316D228D3120005408DA00530806
:101BB600D900590884005A08850012000319F52D2A
:101BC600590884005A08850000088A316D228D3133
:101BD6002230890BEC2D003201302000D90700306D
:101BE600DA3DDC2D8A3156228D3150302000CC0072
:101BF6000030CD005E08D50053085502D6005409C2
:101C06000318890AD70059085607CE005A08573DC7
:101C1600CF008D31412520004C08D8005808DE0041
:101C260008003A3086000030870008302000B900EE
:101C360000301E00B90B1C2E291C312E3108BA07A4
:101C46003208BB3D3308BC3D3408BD3D3508BE3DBA
:101C56003608BF3D3708C03D3808C13DB135B20D25
:101C6600B30DB40DB50DB60DB70DB80DB036AF0C3E
:101C7600AE0CAD0CAC0CAB0CAA0CA90C29082A04B2
:101C86002B042C042D042E042F043004031D1F2EB8
:101C96003A08A9003B08AA003C08AB003D08AC0086
:101CA6003E08AD003F08AE004008AF004108B00056
:101CB60008002000DA00A9013E308B3113238E3153
:101CC60040308A316D228E3120005A08D4005408E3
:101CD600DB00D901530859020318862E5B088600DB
:101CE600870101088A316D228E312230890B792EC7
:101CF600003201302000D4005408DB070130D40044
:101D06005408D9076D2E8A3156228E315030200064
:101D1600CC000030CD005A08D4000030D5005E0853
:101D26005B07D600D701D70D54085602CE005508DA
:101D3600573BCF008D31412520004C08D80058086C
:101D4600DE0008002000A9013E308B3113238E31BE
:101D560039308A3177228E312230890BB02E00320B
:101D660040308A3177228E312230890BB82E0032EC
:101D760038308A31A5228E312230890BC02E0032AE
:101D86002000A9013E308B3113238E3140308A3139
:101D96006D228E312100A00100308A316D228E31F4
:101DA6002230890BD42E003201302000DD005D0880
:101DB6002100A00710302002031CCF2E8A315622A4
:101DC6008E312000A9013E308B3113238E31200045
:101DD6005E088D31872508002000AF01AA1FFA2E64
:101DE600A909AA09A90A0319AA0AAF01AF0AAC1FD1
:101DF600052FAB09AC09AB0A0319AC0A0130AD00DB
:101E06002D08AF06B001B10129082A040319342FA1
:101E1600AE01AE0AAA1B192F0130A935AA0D890BEE
:101E2600102F0130AD002D08AE070D2F0130B03553
:101E3600B10D890B1A2F2A082C02031D242F2908FD
:101E46002B02031C2B2F2908AB022A08AC3B3014AB
:101E56000130AA36A90C890B2C2F0130AE02031DC6
:101E6600192F2F0803193C2FB009B109B00A03191D
:101E7600B10A3108AA003008A90008002100A10013
:101E86002000A9013E308B3113238F3138308A313F
:101E960077228F312230890B4E2F00322100210804
:101EA600A0000230A035FF3E031D552F20353839DE
:101EB60040388A3177228F312230890B602F0032E9
:101EC60040308A316D228F3120005D082100A0004C
:101ED6002008A200A30122088600870101081F39F5
:101EE6008A316D228F312230890B772F00320130F3
:101EF6002100A0002008A2070130A0002008A307A7
:101F060008302302031C6E2F8A3156228F3120009F
:101F1600A9013E308B3113238F3120005E088D31AD
:101F2600872508002000DE01E830AB002B08DF0023
:101F3600A9013E308B3113238F3139308A31772214
:101F46008F312230890BA52F003214308A31772247
:101F56008F312230890BAD2F003220005F080F39F8
:101F660070388A3177228F312230890BB82F0032B0
:101F760020005F08AB000430AB36890BBF2F2B085F
:101F860058388A3177228F312230890BC82F003298
:101F96006C308A3177228F312230890BD02F003274
:101FA60038308A3177228F312230890BD82F003290
:101FB6000C308A3177228F312230890BE02F0032A4
:101FC60006308A3177228F312230890BE82F003292
:101FD60080308A3177228F312230890BF02F003200
:101FE60001308A31A5228F3106302000AB009B30AC
:0A1FF600890BFB2FAB0BFB2F08003B
:020000040001F9
:04000E0084CFFFDAC2
:00000001FF
