:020000040000FA
:0400000080310D2816
:1000060008007E1480318D31C72580318D31F3256E
:100016007E10090080310F288C3102248031DA00ED
:100026008C3103248031DB008C3104248031DC00E8
:100036008C3105248031DD00C930840020308500F4
:10004600A730FE000030FF008C314824D101D201D8
:10005600D301D401D501D601D701D801D901210098
:10006600CD01CE01CF01D0017E1020008131FF29C4
:100076002000A70021004E0803194F28A7302000B2
:10008600270203184C282708A00020082100CF00CB
:100096000800240096160800A7304F02031CD82932
:1000A600240096160800CA308600203087002708EC
:1000B6008100F82904302702031C642824009616C0
:1000C6000800C93086002030870042310108270623
:1000D6000319F8292718B928C93086002030870067
:1000E60042318101CC3086002030870028308100E3
:1000F600C93086002030870044318101C93086002E
:100106002030870045318101C930860020308700C4
:1001160046318101D030F0002030F1000030F2008D
:10012600F3005030F4000030F5008431662480314D
:100136002030F0002130F100E030F2000030F30012
:100146004030F4000030F5008431662480316030A0
:10015600F0002130F1000030F200F3001030F4001E
:100166000030F500843166248031BF28CB3086000C
:10017600203087002708810002308C3161248031CD
:10018600F82940302702031CCB28240096160800C5
:10019600C93086002030870043310108270603193D
:1001A600F829CC30860020308700270881000230ED
:1001B6008C3161248031F82904302702031CE6289B
:1001C600240096160800C930860020308700443186
:1001D600010827060319F829CD308600203087004C
:1001E6002708810004308C3161248031F8290230DF
:1001F6002702031C0129240096160800C930860030
:10020600203087004531010827060319F829CE302A
:100216008600203087002708810008308C31612451
:100226008031F82928302702031C1C292400961641
:100236000800C930860020308700463101082706AD
:100246000319F829CF30860020308700270881005F
:1002560008308C3161248031F829573021004F0253
:10026600031864294F08F93E2000A0002008A600C4
:100276002608A000A101D030A2002030A30020084B
:10028600220786002108233D870001082706031957
:10029600F8292608A000A101D030A2002030A30032
:1002A60020082207A4002108233DA5002408860073
:1002B600250887002708810026088C3154248031C0
:1002C600F82997304F020318A02920302000270272
:1002D600031C702924009616080021004F08A93E29
:1002E6002000A0002008A6002608A000A1012030BA
:1002F600A2002130A3002008220786002108233D02
:100306008700010827060319F8292608A000A1017D
:100316002030A2002130A30020082207A4002108D3
:10032600233DA500240886002508870027088100AC
:1003360040308C3161248031F8292030200027029A
:10034600031CA82924009616080021004F08693EC0
:100356002000A0002008A6002608A000A101603009
:10036600A2002130A3002008220786002108233D91
:100376008700010827060319F8292608A000A1010D
:100386006030A2002130A30020082207A400210823
:10039600233DA5002408860025088700270881003C
:1003A60080308C3161248031F8294F082000A0006C
:1003B600A1012108003A0319E12930292008003A51
:1003C6000319F829013A03195628033A03195D2837
:1003D600013A0319C428073A0319DF28013A031919
:1003E600FA28033A03191529302901302000A00004
:1003F60020082100CF0708007A3021009900230049
:100406008C018D011C3021008C00B6308D0020003F
:100416008C018D012100CD01CE01CF01D001063026
:100426009500200095010B118B16C930AF002030C6
:10043600B0000030B100B200A730B3000030B40005
:100446008331AA238131CA30860020308700FF30ED
:100456008100CB3086002030870001308100CC300F
:100466008600203087002830810020302000AF0031
:100476002130B000E030B1000030B2004030B300AF
:100486000030B4008331AA2381312000AF0122302D
:10049600B0000E30B10008308D3176258131133031
:1004A6002000D0005008AF0000308C318F248131FD
:1004B60004302100B3000030B4000830B50000302D
:1004C600B6001030B7000030B8008030B9000130F7
:1004D600BA000230BB000030BC000130BD00003065
:1004E600BE008030BF000030C0004030C100003088
:1004F600C200B2308E31522681310B178B17200085
:100506000D148D11D0302000D000C930890B892AF6
:10051600D00B892A00328531BA2581318C31BC2431
:1005260081312000D00050082100B10031080319A4
:10053600912AB11CB02AC93086002030870042318A
:1005460001088F3139278131C93086002030870074
:100556004331010887319F2781312100311DBC2A93
:10056600C930860020308700443101088C31A4242C
:1005760081312100B11DC22A8D31542581312100DE
:10058600311EC92A00308F31792781312100B11EF1
:10059600D02A01308F31792781312100311FD62AA7
:1005A6008E31C12681312100B11F912A8D3133252B
:1005B6008131912A20000C08F8007808A0000D0867
:1005C600F8007808A100A60126355607F800780835
:1005D600093E86008701403FA200413FA3000D2B44
:1005E600200822048C008F31BB278231F80078085E
:1005F6002000A40020088C00252B210822048D0051
:100606008F31BB278231F80078082000A40021082A
:100616008D00252B00302205F800FF302305F90058
:100626007908003A03191B2B013A0319202B252BB5
:100636007808003A0319F32A252B7808003A03199B
:10064600002B252B240A031D302B0130F8007808D7
:10065600A60704302602031CE72A240A031D552B8D
:10066600FF30F8005608113E8600870178088100A1
:100676005608123E860087010030C03FC13F532B0B
:100686002508F8005608113E860087017808810083
:100696005608123E860087010130C03F0030C13F38
:1006A600FF3008002608F8000130F835FF3E031D2C
:1006B600582B78352407F9007908A5005608113E0D
:1006C6008600870101082506031D432B5608123EA6
:1006D600860087010130810741310318810A5608D7
:1006E600123E860087011600063AF8001600F80446
:1006F6000319932B5608123E860087011600803A8E
:10070600F8001600F8040319932B5608123E8600CB
:1007160087011600F8001600013AF804031D952B10
:10072600250808005608123E8600870116000C3A76
:10073600F8001600013AF804031D532B5608123E22
:10074600860087010030C03F0130C13F932B200057
:100756003008BC002F08BB00330834040319080016
:100766003B0886003C0887003108810033083B07B8
:10077600B50034083C3DB6003508FF3EB700FF30F3
:10078600363DB800370886003808870031088100F2
:1007960000303402033003193302031C08003B08FF
:1007A600013EB50000303C3DB600350886003608EF
:1007B6008700310881003B08023EB50000303C3D11
:1007C600B6003508860036088700310881003308F0
:1007D6003B07B50034083C3DB6003508FE3EB70081
:1007E600FF30363DB80037088600380887003108E4
:1007F600810033083B07B50034083C3DB600350898
:10080600FD3EB700FF30363DB80037088600380891
:1008160087003108810000303402073003193302A3
:10082600031C08003B08033EB50000303C3DB60003
:1008360035088600360887003108810033083B07F3
:10084600B50034083C3DB6003508FC3EB700FF3025
:10085600363DB80037088600380887003108810021
:1008660000303402093003193302031C08003B0927
:10087600B5003C09B600B50A0319B60A03303505BA
:10088600B90000303605BA003908BB073A08BC3D46
:100896003908B3023A08B43BFC30B305FF30B4055F
:1008A60033083404031908003B0886003C08870017
:1008B600310881000130B3020030B43B0130BB0780
:1008C6000030BC3D532C7108FD007008FC00740814
:1008D6007504031908007C0886007D0887007208E5
:1008E600810074087C07F60075087D3DF7007608E0
:1008F600FF3EF800FF30773DF9007808860079085A
:1009060087007208810000307502033003197402F3
:10091600031C08007C08013EF60000307D3DF70010
:100926007608860077088700720881007C08023EF8
:10093600F60000307D3DF7007608860077088700D0
:100946007208810074087C07F60075087D3DF70083
:100956007608FE3EF800FF30773DF90078088600FD
:10096600790887007208810074087C07F60075080C
:100976007D3DF7007608FD3EF800FF30773DF90033
:1009860078088600790887007208810000307502B1
:10099600073003197402031C08007C08033EF600A6
:1009A60000307D3DF70076088600770887007208DC
:1009B600810074087C07F60075087D3DF70076080F
:1009C600FC3EF800FF30773DF9007808860079088C
:1009D600870072088100003075020930031974021D
:1009E600031C08007C09F6007D09F700F60A0319C6
:1009F600F70A03307605FA0000307705FB007A081F
:100A0600FC077B08FD3D7A08F4027B08F53BFC30C9
:100A1600F405FF30F50574087504031908007C0811
:100A260086007D088700720881000130F4020030DC
:100A3600F53B0130FC070030FD3D0E2DA7302100AF
:100A46004F02031C952D24009616FF300800C9306E
:100A56008600203087005C2DC93086002030870054
:100A660041310108F0007008F500CA3086002030D8
:100A76008700FF308100B42DC93086002030870002
:100A860042315C2DC93086002030870043315C2D11
:100A9600C93086002030870044315C2DC93086007D
:100AA6002030870045315C2DC93086002030870014
:100AB60046310108F0007008932D57304F02031895
:100AC600702D4F08F93EF0007008F6007608F00029
:100AD600F101D030F2002030892D97304F020318F3
:100AE6007E2D4F08A93EF0007008F6007608F0004B
:100AF600F1012030872D4F08693EF0007008F6009E
:100B06007608F000F1016030F2002130F300700841
:100B1600720786007108733D87000108F4007408A7
:100B2600F500B42D4F08F000F1017108003A0319E1
:100B36009D2D602D7008003A03192A2D013A0319DC
:100B46002F2D033A03193F2D013A0319452D073A74
:100B560003194B2D013A0319512D033A0319572D49
:100B6600602D0130F0007008CF07750808002000DE
:100B7600D101E830B1003108D200AF013E308C31EE
:100B8600D624853139308C313D2485312230890B8C
:100B9600CA2D003214308C313D2485312230890B28
:100BA600D22D0032200052080F3970388C313D2486
:100BB60085312230890BDD2D003220005208B1002C
:100BC6000430B136890BE42D310858388C313D2478
:100BD60085312230890BED2D00326C308C313D246D
:100BE60085312230890BF52D003238308C313D2489
:100BF60085312230890BFD2D00320C308C313D249D
:100C060085312230890B052E003206308C313D2489
:100C160085312230890B0D2E003280308C313D24F7
:100C260085312230890B152E003201308C316F242C
:100C3600853106302000B1009B30890B202EB10B88
:100C4600202E08002000C500AF013E308C31D6248E
:100C5600863138308C313D2486312230890B312E55
:100C6600003220004508C4000230C435FF3E031D93
:100C7600382E4435383940388C313D24863122307F
:100C8600890B432E003240308C31332486312000CC
:100C96004308C7004208C600C80146088600470840
:100CA600870001081F398C31332486312230890BA5
:100CB6005A2E003201302000C6070030C73D0130F1
:100CC600C4004408C80708304802031C502E8C3163
:100CD6000D2486312000AF013E308C31D62486317A
:100CE600200051088731132708002000B501B01FE6
:100CF600832EAF09B009AF0A0319B00AB501B50AC8
:100D0600B21F8E2EB109B209B10A0319B20A013017
:100D1600B3003308B506B601B7012F08300403192E
:100D2600BD2EB401B40AB01BA22E0130AF35B00DF2
:100D3600890B992E0130B3003308B407962E013083
:100D4600B635B70D890BA32E30083202031DAD2E22
:100D56002F083102031CB42E2F08B1023008B23B13
:100D660036140130B036AF0C890BB52E0130B40203
:100D7600031DA22E35080319C52EB609B709B60AF2
:100D86000319B70A3708B0003608AF00080020007C
:100D9600BD00AF013E308C31D624863140308C31D7
:100DA6003324863120003D08B7003708BE00BC0159
:100DB60036083C020318F42E3E0886008701010817
:100DC6008C31332486312230890BE72E00320130F4
:100DD6002000B7003708BE070130B7003708BC0748
:100DE600DB2E8C310D24863150302000AF000030D0
:100DF600B0003D08B7000030B80051083E07B90002
:100E0600BA01BA0D37083902B10038083A3BB200C8
:100E16008731592720002F08BB003B08D100080066
:100E26002000C1004108B8003808D1002830AF00C2
:100E36000030B0004108B800B9013808B1003908DF
:100E4600B20087315927873120002F08BA003008B1
:100E5600BB002830AF000030B0004108BC00BD0127
:100E66003C08B1003D08B200863178268731200063
:100E76002F08BE000530BE35FF3E031D3E2F3E3512
:100E86003A07BF003F08C000AF013E308C31D62480
:100E96008731200040087F3980388C316F248731B4
:100EA6002230890B542F0032013008002000B50192
:100EB600B21F642FB109B209B10A0319B20AB5010A
:100EC600B50AB01F6B2FAF09B009AF0A0319B00AF4
:100ED6002F0830040319922FB401B40AB01B7D2FDA
:100EE6000130AF35B00D890B742F0130B3003308D4
:100EF600B407712F30083202031D832F2F083102E9
:100F0600031C892F2F08B1023008B23B0130B036DE
:100F1600AF0C890B8A2F0130B402031D7D2F3508D3
:100F260003199A2FB109B209B10A0319B20A320894
:100F3600B0003108AF0008002000B20032083F3987
:100F4600B1003108B3003F305205B1003108330615
:100F5600031908005208C0393304B1003108D20021
:100F6600AF013E308C31D624873139308C313D2467
:100F760087312230890BBD2F0032200052080F39ED
:100F860070388C313D2487312230890BC82F0032CE
:100F960020005208B1000430B136890BCF2F31083A
:100FA60058388C313D2487312230890BD82F0032B6
:100FB60038308C316F2487312230890BE02F003294
:100FC60008002000B301B4012F1CED2F3108B30730
:100FD6003208B43D0130B135B20D890BEE2F013028
:100FE600B036AF0C890BF32F2F083004031DE72F03
:0A0FF6003408B0003308AF00080013
:1018040003340034033400348B130130F0007008C7
:101814002000D50708008C3123242000D7012400A0
:101824001E1508008B1301302000AF002F08D507C8
:10183400080001302000D5025508031D08008B174D
:10184400080024001C19232C1E081F390319080042
:10185400232C01302000D5025508031D08008B17E6
:1018640008002000AF002F08240099008C312324A5
:1018740024001E0808002000B00080308C3133247E
:101884008C31200030088C3133240800640080013E
:1018940001310130FE020030FF3B7F087E04031952
:1018A4000034492CF2002830720203185D2C1030E9
:1018B4008C316124080020308C3161240800F1004F
:1018C400C9308600203087000130C03F2100500815
:1018D4007104F0007008D00008002000B00000304F
:1018E4008C3133248C31200030088C3133248C31FA
:1018F4008C310D2408002000B200B101321C862C6A
:101904002F08B0003008B1070310AF0D0310B20C5C
:101914003208031D802C310808002000B000D701D4
:101924003008031D992C803024009C009B2C24003B
:101934009C0120002F0824009A0028309D0080304C
:101944009E0008002000BA003A080139B6003608A3
:10195400B8003A360139B6003608B9003808B6007E
:101964003608B1003908B7003708B20001308D31AC
:10197400122508008C3114248C31210050082000D9
:10198400B0003008B10021005008031DD02CC9302C
:101994008600203087000030C03FD12CD0018C312C
:1019A4002B242000310808002000B0008C312324AF
:1019B4008C3120005703031DE22C24009E14E62CD6
:1019C400D701D70A24001E148C3123248C31200023
:1019D4002F0C300D240099008C31232424001E0880
:1019E40008002000C5000230450203180800283012
:1019F4004202031808002830C3004308AF0045081A
:101A04008C317D248C3120004207C4004408C60078
:101A140051084606031908004608873113270800B1
:101A24002000B500AF013E308C31D6248D3120002A
:101A34003108B3000130B335890B1D2D3508B400CE
:101A44000130B435FF3E031D232D343533043204F5
:101A540008388C316F248D312230890B2F2D0032C0
:101A640008002000C9014908C400C5016030C6004F
:101A74002130C7004408460786004508473D8700D3
:101A84000108C8004808C20049088E3189268D31F2
:101A940001302000C4004408C9071030490203186B
:101AA4000800352D8C3114248D31C9308600203046
:101AB4008700453101082000C7004708C800C93025
:101AC40086002030870046310108C7004708C90056
:101AD4008C312B248D3120004908C7004708C200EF
:101AE40048088C31F32408002000B2003008310487
:101AF4000319802D3108DD003008DC002F08031D98
:101B0400872D803024009400892D240094013630E0
:101B1400950081309600053097002000323524006E
:101B24009200FE3093002000911192112100911532
:101B3400921508002000BD003608BC003508BB0023
:101B44003D08B9003908BE000130B7020030B83B87
:101B5400370A0319380A031908003B0886003C08B1
:101B640087000108B9003908BA000130BB0700300A
:101B7400BC3D3A08B9003E08860087013908810057
:101B84000130B9003908BE07A62D0B1D080020003E
:101B940095010B11803021004D020318D82D01301E
:101BA4002000A70027082100CD07D92DCD014D180D
:101BB400DF2D01308C3161248D318E31FB268D3146
:101BC4008231DD228D312000A7002708A800280AD1
:101BD40003190800CA3086002030870028088100D5
:101BE40008002000911D112E240096122000A80147
:101BF400A80A4030240016052000AD002400140873
:101C0400253920002D04AE002E08A9005D088A00A5
:101C14005C080A008E312000911124001516200062
:101C2400921D0800A801A80AFF30AD002D08A900E4
:101C34005D088A005C080A008E31200092110800B9
:101C4400372E240011082100CE01CE0A08002400FA
:101C5400110880313B202100CE0108002400110826
:101C64008531212524009100080020002908AA00BC
:101C7400AB012B08003A0319402E2D2E2A08013AF5
:101C84000319232E043A0319302E243A0319292E5A
:101C9400053A0319322E403A0319512E2D2E08000D
:101CA4002000BE003E08031908003E08113E8600CD
:101CB400870181013E08123E860087010030C03F43
:101CC400C13F3E08183E8600870181013E08193E47
:101CD4008600870181010330BD003E081A3E86005C
:101CE40087013D0881003E08143EAF000030B0007B
:101CF4000030B100B2000430B3000030B4008331CE
:101D0400AA2320003E08BD003D08D600080020009C
:101D1400C300AF013E308C31D6248E3139308C3142
:101D24003D248E312230890B952E00322000430849
:101D34000F3940388C313D248E312230890BA02E4E
:101D4400003238308C313D248E312230890BA82E5C
:101D5400003240308C3133248E31200042081F3948
:101D64008C3133248E318C310D248E312230890B09
:101D7400B92E0032200051088731132708002000B3
:101D8400CD014D08C900CA01C935CA0DC935CA0DEE
:101D9400C935CA0D2030CB002130CC0049084B078F
:101DA40086004A084C3D8700203001020318F12EBA
:101DB4004D08C900CA01C935CA0DC935CA0DC9358E
:101DC400CA0D2030CB002130CC0049084B07C2009B
:101DD4004A084C3DC3004D08863125268E3101301A
:101DE4002000C9004908CD0708304D020318080037
:101DF400C32E20005608183E8600870104300102D5
:101E0400031808008231DD228E31FA007A08FC00C2
:101E14007C0A031908008C3106248E3120005608F0
:101E24001A3E860087010108013E0339FA007A0848
:101E3400FD007C08FA007D085607FB007B08143E71
:101E4400860087017A0881007D08FA0056081A3E48
:101E5400860087017A0881000130FA005608183E8E
:101E6400860087017A0881078C311B2408008C3195
:101E740014248F31C9308600203087004231010894
:101E84002000B2003208B300C93086002030870039
:101E9400423101080138B200CB308600203087007F
:101EA400320881008C312B248F3120003318722F9B
:101EB4000D1006302000B2003030890B5F2FB20BBA
:101EC4005F2F000020000D14D0302000B200C93074
:101ED400890B6A2FB20B6A2F00328531BA258F31F4
:101EE4002000B318772F8D1108008D1508002100EC
:101EF400B0008C3114248F31210030082000CA0036
:101F0400CB014A08AF004B08B0002830B1000030C4
:101F1400B2008731E4278F31D0302000CC0020304C
:101F2400CD002F084C07CE0030084D3DCF004E08A1
:101F3400B5004F08B6001030B7000030B800A0302C
:101F44008D319C258F318C312B248F312000C2019F
:101F5400210030088C31F3248F3110302000CA0066
:101F64004A08B600A0308631CA268F318D315425F7
:101F7400080020000C08F0007008F2000D08F000C2
:101F84007008F300F70177355607F000700A8600F1
:101F94008701403FF500413FF600D92F7208D32F47
:101FA4007308F0007008F400F12FFF3008000030CF
:101FB4007505F000FF307605F1007108003A031949
:101FC400E72F013A0319EC2FD72F7008003A0319B1
:101FD400D02FD72F7008003A0319D22FD72F7408A7
:101FE40075050319F72F770808000130F000700811
:0C1FF400F707043077020318D72FC52F21
:020000040001F9
:04000E0084CFFFDAC2
:00000001FF
